S013000041726475696E6F204475652E7372656301
S214080000282A07205508080053080800530808003F
S21408001053080800530808005308080000000000AA
S2140800200000000000000000000000005308080060
S214080030530808000000000053080800530808008A
S2140800405308080053080800530808005308080017
S2140800505308080053080800530808005308080007
S214080060530808005308080000000000BD060800F2
S214080070CD060800DD060800ED06080000000000B2
S214080080000000005308080053080800530808003A
S21408009053080800530808005308080053080800C7
S2140800A0530808000000000053080800530808001A
S2140800B053080800530808005308080053080800A7
S2140800C05308080053080800530808005308080097
S2140800D05308080053080800530808005308080087
S2140800E05308080053080800530808005308080077
S2140800F05308080010B5054C237833B9044B13B1E0
S2140801000448AFF300800123237010BD2C09072094
S21408011000000000182608000C4B43B10C4810B528
S2140801200C49AFF300800C48036823B910BD0A4891
S214080130036833B97047094B002BF7D0BDE8104069
S2140801401847064B002BF5D0184700BF00000000E4
S21408015018260800300907201826080000000000A6
S214080160002373B501931B4B044698420D4607D1EE
S214080170194E29462046B0470028FAD102B070BD6D
S214080180164B984208D1164E01A92046B0470028BB
S214080190FAD1019B2B70F1E7124B984206D1104E0C
S2140801A001A92046B0470028FAD1F2E70E4B98423C
S2140801B006D10B4E01A92046B0470028FAD1E8E739
S2140801C00A4B9842DAD1064E01A92046B0470028C5
S2140801D0FAD1DEE700080E401B0808000080094038
S2140801E03D08080000C0094000000A4000400A40D8
S2140801F01B4B70B5984204460D4607D1194E294642
S2140802002046B0470028FAD1012070BD164B984208
S21408021006D1164E29462046B0470028FAD1F3E7FD
S214080220134B984206D1114E29462046B04700285F
S214080230FAD1E9E70F4B984206D10C4E29462046DC
S214080240B0470028FAD1DFE70B4B984206D1074E95
S21408025029462046B0470028FAD1D5E7002070BDC9
S21408026000080E400D080800008009402B0808000A
S21408027000C0094000000A4000400A4030B5174B4D
S21408028085B09847164B9847164D0820A847164C31
S214080290164B174A1C60174B08201A60164A174B4D
S2140802A01A60174B01934FF4E13302934FF400633F
S2140802B00393A847134D01A92046134B98472B686C
S2140802C0124C98680021A0472B6800215868A04760
S2140802D00F4B10489847002005B030BD190308009A
S2140802E005040800B907080000080E40F8090720AA
S2140802F0F1010800F409072061010800F009072049
S21408030000BD0105E8000720D9070800790B08009A
S214080310690B0800E025080070B50F480F4CA04789
S2140803203E2100200E4B98470E4DA8470028FCD0CB
S2140803300D4B98470D4A0E4B0E4D9A62A84700285B
S214080340FCD00D4B102098470C4B98472346BDE829
S21408035070400148184700BF00BD0105810007200E
S214080360410708008907080099070800013F0D2083
S21408037000060E40A9070800FD060800D108080078
S2140803802DE9F0410E46144688B915460A4FDFF89F
S2140803902C80611B002D314403DC24EAE470BDE8A0
S2140803A0F0813868D8F800309847013DF1E74FF0FB
S2140803B0FF30BDE8F08100BFF8090720F0090720E4
S2140803C0013802282DE9F0410E4612D80C460B4F8C
S2140803D0DFF82C808D18AC42A4EB060001D1BDE8EE
S2140803E0F081386814F8011BD8F8003098470028C0
S2140803F0F1DA4FF0FF30BDE8F08100BFF8090720BA
S214080400F40907204FF40042194B10B50B205A6028
S214080410184CA0470C20A0470D20A0470E20A04748
S214080420154C4FF060513B20A0474FF060515520C7
S214080430A0474FF060515620A04710496820A047B3
S2140804400F495C20A0470F4B0F4A4FF440710F48E6
S21408045098474FF020513920A0474FF080510B2085
S214080460A0472346BDE810404FF080512C2018477F
S214080470501A0E40B9070800290508007900002818
S21408048001000028ED05080001000008000E0E40D7
S214080490B1F1805F426417D005D819B1B1F1006F89
S2140804A00BD042607047B1F1405FFBD0B1F1605F9E
S2140804B0F8D0B1F1205FF4D17047036F016F0B409D
S2140804C023EA02030367ECE7036F1343FAE7D3074D
S2140804D041644CBF4166016612F00A0F14BF016200
S2140804E04162930704D5C0F88010416101607047E7
S2140804F0130748BFC0F88410F7E710B5029C41649C
S2140805003CB141663BB101653AB1016301610160E6
S21408051010BD0166F6E74165F6E74163F6E7C06C8D
S2140805207047806C70470000F7B545090E4605F51C
S214080530001501F0F04105F20775B1F1205F4FEAAA
S214080540452542D007D8B1F1006F1ED0B1F1805FC3
S2140805502BD0002027E0B1F1405F02D0B1F1605FF8
S214080560F7D1012406F0605200F01F0102F148405E
S21408057006EA0403424200934241C6F38003284633
S21408058004FA01F1164DA84728E0012700F01F04D9
S21408059007FA04F428462246124B98473846F607C8
S2140805A04CBF6C662C6603B0F0BD00F01F0101203E
S2140805B000FA01F169642B6FF40743EA01032B671D
S2140805C069604CBF69662966EDE7012400F01F01E3
S2140805D0324604FA01F12846034B98472046E2E7DC
S2140805E0FB04080091040800CF04080002F0F0435A
S2140805F0B3F1205F73B504460D4616462FD007D8CC
S214080600B3F1006F1AD0B3F1805F22D000201EE04D
S214080610B3F1405F02D0B3F1605FF7D106F06052E5
S21408062002F1484106F001034A4200934A41204637
S214080630C6F3800329460B4CA04707E00A4619462E
S214080640094B9847F0074CBF65662566012002B03F
S21408065070BD6164036F0B4303676160F2E7034B89
S2140806609847F3E7FB04080091040800CF04080045
S214080670F8B50F4B04460E4698470E4B05462046DF
S2140806809847054013D00C4C04F160072368B34222
S21408069008D16168294205D0E36830469847636800
S2140806A025EA0305BC4202D01034002DEED1F8BD71
S2140806B01F05080023050800480907200B210148E4
S2140806C0014B1847000E0E40710608000C21014821
S2140806D0014B184700100E40710608000D2101480E
S2140806E0014B184700120E40710608000E210148FB
S2140806F0014B184700140E40710608000F4B1A6B82
S21408070022F07002104340F601021863996E08073B
S2140807100CD51A6B22F0030242F002021A6340F666
S2140807200102996E090705D500207047013AEDD1F8
S21408073001207047013AF4D1FAE700BF00060E40E0
S2140807400E4A136A28B10E4919400E4B0B43136222
S214080750704723F45C1323F00303090243F45C1385
S21408076089B243F001030B431362936EDB07FCD593
S214080770136A43F09B7343F48033E8E700060E40A1
S214080780FCFFC8FE02003701024B986E00F480306A
S214080790704700BF00060E404FF00052014B9A62A9
S2140807A0704700BF00060E40024B986E00F002002D
S2140807B0704700BF00060E40064B00F07F00C3F8E7
S2140807C00C01D3F80C21002042F01022C3F80C21AB
S2140807D0704700BF00060E40AC2310B503604A6899
S2140807E00B68B3FBF2F34FF6FE721B095C1E9442CD
S2140807F00AD803628B68436040F20223C0F82031AF
S21408080050230360002010BD012010BD43699B07DC
S21408081046BFC1610020012070474369DB0743BF1C
S214080820836900200B700120704743699B0743BF0C
S214080830C1F30801C1610020012070474369DB0746
S21408084041BF83690020C3F308030B6058BF01202B
S2140808507047FEE708B5154A154B9A4219D100218C
S214080860144B154A93421DD3144B154A23F0604186
S21408087021F07F0103F16043B3F5801F91603EBF0E
S214080880936843F0005393600E4B98470E4B984777
S214080890FEE70E49043A8B42E1D252F8040F43F8B9
S2140808A0040BF8E743F8041BDCE700BF182608002B
S2140808B0000007202C090720240A0720000008004B
S2140808C000ED00E0E10908007D0208002C09072079
S2140808D010B52B4A136B03F00303012B294B0FD0DB
S2140808E004D3116ACC012CD5274946E02749496923
S2140808F008064CBF4FF400414FF4FA4119600DE06A
S214080900116AC90101D52049F8E721491960116A19
S21408091001F07001102912D02029F4D0116B01F0D3
S2140809207001702905BF03211A68116BB2FBF1F23A
S2140809301EBF1A68C1F30211CA401A6010BD1549D5
S214080940DCE713491960116A01F07001102913D009
S2140809502029C9D0116B01F00301022901BF946A4E
S2140809601968C4F30A4404FB011109BF906A0A49CE
S214080970C0B2B1FBF0F1C1E706491960EAE700BF6B
S21408098000060E40E4000720001BB700101A0E40B1
S21408099000093D0000127A00001C4E0E074B1A682C
S2140809A00AB9074A1A601A68064910448142A6BF5F
S2140809B0186010464FF0FF30704700BFB809072090
S2140809C0282A0720FC7F08204FF0FF3070474FF496
S2140809D0005300204B607047012070470020704786
S2140809E070B50F4E0F4D761BB61018BF002405D0F5
S2140809F0013455F8043B9847A642F9D10A4E0B4DE8
S214080A0001F0F8FD761BB61018BF002406D0013496
S214080A1055F8043B9847A642F9D170BD70BD00BF93
S214080A2000260800002608000826080000260800F9
S214080A3070B4860746D0541E002A41D0CAB2034670
S214080A4002E014F1FF343BD303F8012B9D07F8D1DD
S214080A50032C2ED9CDB245EA05250F2C45EA0545C7
S214080A6019D9264603F11002103E0F2E42F8105CE4
S214080A7042F80C5C42F8085C42F8045C02F110028A
S214080A80F2D8A4F1100222F00F0204F00F0410327C
S214080A90032C13440DD91E462246043A032A46F868
S214080AA0045BFAD8221F22F003020432134404F02F
S214080AB003042CB1C9B21C4403F8011B9C42FBD1A9
S214080AC070BC704714460346C2E700BFF0B505463B
S214080AD089B008460C46012700F01EF90226C319FD
S214080AE020490393AB6B04AA04940590AC68079757
S214080AF002960691019253B3636E13F0010FB4F990
S214080B000C309AB201D1900525D5910406D4626EB0
S214080B1043F4005322F40052A3816266284601AAD1
S214080B20214600F01BFC636E00280CBF0A254FF018
S214080B30FF35DA0702D4A3899B0502D5284609B0F3
S214080B40F0BDA06D00F0B2FD284609B0F0BD2846FD
S214080B5000F078FAD0E7A06D00F0A6FDB4F90C30E6
S214080B609AB2D2E7F0250800024B01461868FFF74C
S214080B70ADBF00BFE800072000290CBF02220022F4
S214080B804FF4806300F000B82DE9F043614D83B060
S214080B902D6804460F4690461E4615B1AB6B002BD3
S214080BA064D0B8F1020F06D0B8F1010F00F29F80AA
S214080BB0002EC0F29C80636ED80734D5214628469E
S214080BC000F0E8F9216B41B104F14003994202D0E4
S214080BD0284600F0DDFA002323630022B4F90C301F
S214080BE0A26162601A063AD423F44A6323F0030328
S214080BF0B8F1020FA3811DD001AB6A4621462846EC
S214080C0000F056FDA3891843A081002E32D1009E1D
S214080C10304600F0C5FD074600286BD0A38943F090
S214080C208003A38128E0A3899905C7D4A06D00F0A6
S214080C303BFDC3E7002500260120616E04F1430250
S214080C4043F00203A660CE07A3816061226022619A
S214080C5001D498053ED5284603B0BDE8F08321693F
S214080C60284600F095FAB4F90C30BDE7284600F09F
S214080C70E9F996E7002FCBD0AB6B002B33D0009B5F
S214080C80B4F90C209E421CBF42F40062A281B8F15F
S214080C90010F04BF42F00102A28192B212F00803CB
S214080CA02760276166610ED0D1071AD50023656EC6
S214080CB0764215F00105A661A36009D000252846EE
S214080CC003B0BDE8F083A360656E15F00105F5D1A5
S214080CD09305C0D4A06D00F0E9FC284603B0BDE833
S214080CE0F083A660F0E7284600F0ACF9C7E74FF0B7
S214080CF0FF35B0E7DDF80090B14504D0484600F06F
S214080D004FFD074620B9B4F90C304FF0FF3592E78F
S214080D104E4683E7E800072020F0030110F00300A2
S214080D20C0F1000051F8043B00F1040C4FEACC0C6B
S214080D306FF000021CBF22FA0CF213434FF0010CAE
S214080D404CEA0C2C4CEA0C4CA3EB0C0222EA0302ED
S214080D5012EACC1204BF51F8043B0430F4D0C2F1B6
S214080D60000102EA0102B2FA82F2C2F11F0200EBA7
S214080D70D200704738B5304B054618680C4610B197
S214080D80836B002B38D0B4F90C2093B218070CD517
S214080D902069A8B113F001021ED000226369A26080
S214080DA05B42A361F0B1002038BDD9063BD5580791
S214080DB025D4206942F00803A3819BB20028E9D114
S214080DC003F42072B2F5007FE4D02846214600F0EE
S214080DD09DFCA3892069DDE7990758BF6269A26070
S214080DE00028E0D1B4F90C301A06DDD543F04003EC
S214080DF0A3814FF0FF3038BD00F024F9C3E7216B1C
S214080E0051B104F14003994204D0284600F0C0F9D5
S214080E10B4F90C20002323630023206922F024025F
S214080E2084E80900C6E7092342F040022B604FF029
S214080E30FF30A28138BD00BFE8000720024B13B17F
S214080E40024800F005B8704700000000BD10080012
S214080E50002301461A46184601F09ABAB1F90C3032
S214080E602DE9F0419AB20D46110780463AD46A68D1
S214080E7043F40063002AAB8170DDAC6A002C4AD0CC
S214080E8000229BB2D8F80060C8F8002013F48052FD
S214080E9068D02A6D5F0705D569682B6B521A0BB1A7
S214080EA0EB6BD21A0023E9694046A047441C3DD0A4
S214080EB00021B5F90C302A6923F40063AB81DB0402
S214080EC069602A6048D4296BC8F8006019B305F130
S214080ED04003994202D0404600F05AF900202863A1
S214080EE0BDE8F0812E69B6B1910718BF00232C68BB
S214080EF008BF6B692E60A41BAB600AE02346324627
S214080F006F6AE9694046B8470028A4EB000406441F
S214080F1004DD002CF2DC0020BDE8F081AB894FF040
S214080F20FF3043F04003AB81BDE8F081D8F80040BD
S214080F301D2CF3D8164BE340DB4313F00103EDD129
S214080F40B5F90C20296922F40062AA81D2046B60E4
S214080F502960B8D5002CB6D12865B4E7EA6B002A14
S214080F608BDCD8E70123E9694046A047431C0246C4
S214080F7002D0AB89AC6A8DE7D8F80030002BF8D0E1
S214080F801D2B01D0162BC9D1C8F80060C3E700BFD7
S214080F900100402038B50D46044608B1836BBBB146
S214080FA0B5F90C0088B16B6EDB0701D4810517D53F
S214080FB020462946FFF752FF6B6E0446DA0702D42E
S214080FC0AB899B0507D5204638BD0446204638BD64
S214080FD000F038F8E4E7A86D00F068FB204638BD56
S214080FE0A86D00F061FBE3E7014900F031BB00BFE4
S214080FF079240800002310B504468181C281036065
S214081000436083604366036143618361194608222F
S2140810105C30FFF70DFD07480749084A084B206271
S214081020E4616162A262E36204F15800BDE8104020
S21408103000F036BBDD220800012308003D23080027
S2140810405D23080010B50446144800F02DFBA26B7B
S214081050FAB90320124904F53B73C4F8E832C4F819
S214081060E022C4F8E402E16360680421FFF7C2FFE7
S214081070A06801220921FFF7BDFFE06802221221BD
S214081080FFF7B8FF01230548A363BDE8104000F04A
S2140810900DBB0248BDE8104000F008BB080A072050
S2140810A0E90F0800014800F0FFBA00BF1C0A072035
S2140810B0014800F0FBBA00BF1C0A072038B50A4CE6
S2140810C00A4D641BA4100AD004F18043013B05EBCB
S2140810D08305013C55F804399847002CF9D1BDE83A
S2140810E0384001F091BA00BF1826080014260800F8
S2140810F0F8B50C46234F064600F01CFFBB68C4F53F
S2140811007E615D680F3125F00305294421F47F616F
S21408111021F00F01A1F58054B4F5805F07DB0021AC
S214081120304601F0C9F8BB682B44984204D03046D4
S21408113000F006FF0020F8BD6142304601F0BCF81A
S21408114001300DD0104BBA6819682D1B45F0010503
S2140811503046091B5560196000F0F2FE0120F8BD04
S2140811600021304601F0A8F8BA68831A0F2BDEDD96
S214081170064C0549246843F00103001B53600860C9
S214081180D5E700BF1C050720BC090720240907204F
S214081190002944D02DE9F0410D46804600F0CAFEED
S2140811A055F8047C6949A5F1080427F00103E218FC
S2140811B08E685068B24220F003005ED0FE0750608A
S2140811C00BD455F8087C01F1080EE41BA5683B44CF
S2140811D075456DD0E768EF60BD6015186D68ED075A
S2140811E03ED543F001026260E350B3F5007F17D2A4
S2140811F00122DB0898104D68134451F8337082407A
S21408120001EBC3002A430838E060A7604A6041F84B
S2140812103340FC604046BDE8F04100F091BE7047A0
S2140812205A0A042A52D89A0902F13907FF0002F12D
S2140812303805C819CA59083890424FD0516821F065
S21408124003018B4232D292689042F7D1C368A060FD
S214081250E3609C60C4604046BDE8F04100F070BEA4
S21408126095683B4F0344BD4240D0D06843F0010226
S214081270E86085606260E350B7E7FF07034407D479
S21408128055F8085C641BE268A0682B44C26090604E
S214081290304A43F001001268606093428C60B9D30C
S2140812A02D4B40461968FFF723FFB3E71046CDE7F6
S2140812B011184968C90744D491680344D26843F0B2
S2140812C00100CA6091606060E350A3E7142A16D84C
S2140812D002F15C07FF0002F15B05AAE70123AA10EA
S2140812E04D6893402B434B600346B0E743F001023A
S2140812F04C610C61E560A5606260E3508AE7542A99
S21408130006D81A0B02F16F07FF0002F16E0590E788
S214081310B2F5AA7F06D8DA0B02F17807FF0002F1C9
S214081320770586E740F25450824206D89A0C02F1B6
S2140813307D07FF0002F17C057BE74FF47E777E256C
S21408134077E743F001016160136063E71C05072037
S2140813502405072028090720EC0907209368002B96
S21408136071D02DE9F04F8B8983B00C461907009091
S214081370164625D522691AB313F0020035682BD015
S2140813804FF00009B0464F46DFF8C0A2002F55D0F0
S21408139057453B464A4628BF5346E1690098666A61
S2140813A0B047002856DDD8F8083081441B1A3F1A83
S2140813B0C8F80830002BE9D1002003B0BDE8F08F4C
S2140813C021460098FFF7D6FC002840F03581A3890F
S2140813D0356813F00200D3D113F0010944D14F4603
S2140813E0019637B39A05D4F8088040F185804745BA
S2140813F0C346C0F0AD8013F4906F40F0AE80BA4696
S21408140020685A46494600F031FDA2682368A2EBD8
S21408141008025B44A2602360019AD1449368A7EB54
S2140814200A07A3EB0A039360002BC5D0A389002FF5
S214081430D8D1D5F800906F680835D2E7D5F800906F
S2140814406F680835A2E70020704721460098FFF726
S214081450A1FD78B3B4F90C304FF0FF3043F04003E9
S214081460A38103B0BDE8F08F814633464E46A846B2
S2140814709A464D4656B3002832D0B145CB4628BFCB
S214081480B346206823695F469842626904D9A36810
S21408149013449B4500F3A88093454DDB1346676AC3
S2140814A02A46E1690098B847071ED3DDB9EB070955
S2140814B0CBD00120DAF808303D44DB1BF61BCAF80F
S2140814C00830002B3FF478AF002ED4D108F108037B
S2140814D053F8046C984653F8085C0833002EF7D087
S2140814E032460A21284600F005FC002800F0A180B4
S2140814F00130A0EB0509C0E720682369984202D8A6
S21408150063699F425DD2B84528BFB84649464246F9
S21408151000F0ACFCA3682268A3EB08034244A3606F
S21408152022600BB1C24677E721460098FFF732FDE6
S21408153000288FD1C2466FE75A46294600F096FC27
S214081540A2682368A2EB0B025B44A2602360ADE7A7
S214081550B846BA46BB46206853E7626920682169E0
S21408156002EB4208A0EB010A08EBD8780AF1010062
S2140815704FEA680838444045424684BF804642469B
S2140815805B0544D51146009800F012F983460028FA
S21408159055D05246216900F0F3FBA38923F49063E3
S2140815A043F08003A3810BEB0A00A8EB0A03C4F8F8
S2140815B010B0C4F814802060A360B846BA46BB468C
S2140815C01FE76FF00042BA4228BF3A4692FBF3F292
S2140815D0E16903FB02F300984A46666AB047B0F131
S2140815E0000A3FF719AF35E71A462946019300F077
S2140815F03DFC2268019B21461A4422600098FFF7AA
S214081600C9FC019B00287FF425AF1F464EE70098CB
S21408161000F09CFC83460028C5D1009D2169284619
S214081620FFF7B6FD0C22B4F90C302A6023F08003CD
S21408163012E706F1010920E74FF0FF30BDE60C225D
S2140816400099B4F90C300A6006E700BF00FCFF7F7B
S2140816502DE9F84310F538761ED0884607464FF031
S21408166000097568B468013D10D4A389013D012BB3
S21408167008D9B4F90E30013304D021463846C0479D
S21408168049EA00096B1C04F16804EED13668002E9E
S214081690E7D14846BDE8F883B1464846BDE8F88332
S2140816A0704700BF704700BF704700BF704700BF55
S2140816B070B50C46B1F90E1090B0002915461E46B6
S2140816C014DB01AA00F03AFF00280FDB029A4FF459
S2140816D0806302F47042A2F50052B2FA82F24FF426
S2140816E00060520932602B6010B070BD0023A289DA
S2140816F0336012F0800004D0402218462A6010B0EA
S21408170070BD4FF480632B6010B070BD8A890B469D
S214081710920706D5012103F1430259611A601A613E
S2140817207047F0B583B001AB6A460C460646FFF72D
S214081730BFFF00990546304600F03AF8B4F90C3079
S214081740D8B19DE80600154F43F08003F763A381E0
S2140817502060206161611AB92B43A38103B0F0BDF4
S2140817603046B4F90E1000F0FDFEA0B1A38923F0B0
S214081770030343F001031BB2EEE79A05EED40121FA
S21408178023F0030304F1430243F00203A3816161DB
S21408179022602261E2E7B4F90C30DDE7E90F0800C1
S2140817A0024B0146186800F003B800BFE80007209F
S2140817B02DE9F04F01F10B06162E83B0054640F2D0
S2140817C09E8036F0070600F1BD80B14200F2BA806E
S2140817D000F0B0FBB6F5FC7FC0F08582730A00F017
S2140817E0B880042B00F26C81B30903F1390003F1C9
S2140817F0380EC100B84F39444C680839A14206D1A2
S2140818000CE0002A80F2AB80E468A14206D0636848
S21408181023F003039A1B0F2AF3DD70463C69DFF8B2
S214081820CCE2744500F09E81636823F003039A1B9C
S2140818300F2A00F38381002AC7F814E0C7F810E0DF
S21408184080F29180B3F5007F80F054810122DB0896
S21408185079684FEAA30C134457F8338002FA0CF25F
S21408186007EBC30C0A43ACF10801E160C4F8088032
S2140818707A6047F83340C8F80C40012483109C402F
S21408188094427DD8144206D120F003006400144226
S21408189000F10400FAD007EBC009CC468046DCF815
S2140818A00C309C4507D15FE1002A80F26D81DB6829
S2140818B09C4500F05981596821F003018A1B0F2ABC
S2140818C0F2DDDC68D3F808C046F0010828461E4456
S2140818D042F00105C3F80480CCF80C40C4F808C0F0
S2140818E07E613E61C6F80CE0C6F808E075605A509E
S2140818F0009300F025FB009B03F108041EE0102966
S21408190020D800F017FB102618230220724F3B44FD
S2140819105C68A3F10802944200F02F816368E168CE
S21408192023F0030323445A68A66842F00102F160D4
S21408193028468E605A6000F003FB0834204603B041
S214081940BDE8F08F00240C2320462B6003B0BDE8CA
S214081950F08F40204FF400714FF03F0E4AE72344C3
S2140819605A68E168E0E723445A68284642F00102CC
S2140819705A60083400F0E4FA204603B0BDE8F08F59
S214081980BC68636823F00308B04504D3A8EB0603D5
S2140819900F2B00F38580DFF85891504BD9F80020BC
S2140819A01B680132334404EB080A00F0548103F53F
S2140819B080530F3323F47F6B2BF00F0B59462846C2
S2140819C000F07AFC411C024600F0FB80824500F2DB
S2140819D0F680434B19685944196000F04C81D9F8D1
S2140819E0000001301BBFA2EB0A0A5144C9F80020C8
S2140819F0196012F0070100F01481C1F10800C1F562
S214081A0080510244083102EB0B09C9F30B09A1EB1C
S214081A100909494628460193009200F04DFC431CEC
S214081A209DE80C0000F04281801A484440F001000E
S214081A301968BC424944BA601960506017D0B8F1BA
S214081A400F0F40F2FA804FF0050C6268A8F10C0000
S214081A5020F0070002F0010204EB000E02430F28F4
S214081A606260CEF804C0CEF808C000F216811D4B9E
S214081A70BC681A68914288BF19601B4B1A68914265
S214081A80626888BF196022F003029642A2EB06033A
S214081A9001D80F2B04DC284600F052FA00244DE744
S214081AA046F0010243F00103264462602846BE6001
S214081AB00834736000F044FA204603B0BDE8F08F9F
S214081AC0142B70D9542B00F2A280330B03F16F004D
S214081AD003F16E0EC1008DE61C050720EC090720F1
S214081AE0BC090720E4090720E80907202405072081
S214081AF0240907205A0A042A5BD9142A00F2AE8061
S214081B0002F15C01C9005B3207EB010C7958ACF1B5
S214081B10080C8C4500F088804A6822F0030293423D
S214081B2073D289688C45F7D1DCF80C307A68E360A4
S214081B30C4F808C09C60CCF80C409EE646F0010C41
S214081B4042F001012644C4F804C028467E613E617E
S214081B50C6F80CE0C6F808E07160E25000F0F0F94C
S214081B600834EBE67A6888E608F1010818F0030FEF
S214081B700CF1080C7FF493AE2DE0DC68A34208BF96
S214081B8002303FF44BAEC9E61C4619444A68DB6887
S214081B9054F8086F42F001024A602846F3609E60D7
S214081BA000F0CEF9CAE603F15C0003F15B0EC10053
S214081BB020E69A0902F13901C9003832A4E7BC4286
S214081BC054D0BC68626822F003025EE759F8083908
S214081BD0994540F0868010F0030F00F1FF30F5D1EC
S214081BE07B6823EA04037B6064009C423FF6C8AE29
S214081BF0002C3FF4C5AE1C4240467FF44CAE640051
S214081C001C4200F10400FAD045E68C468CE7B3F592
S214081C10AA7F15D8F30B03F1780003F1770EC100FD
S214081C20E8E54FF48051EEE601217B68921001FA50
S214081C3002F21A437A60634679E7012353602AE77B
S214081C4040F25452934222D8B30C03F17D0003F1BC
S214081C507C0EC100CEE503F1100BAFE6542A29D856
S214081C601A0B02F16F01C9006E324DE7204B196856
S214081C7059441960B3E6CAF30B0000287FF4AFAEE8
S214081C8008EB0B03BA6843F001035360EFE67F20C6
S214081C904FF47E714FF07E0EACE504F1080128463D
S214081CA00093FFF775FA009B1968E0E601204FF0ED
S214081CB00009BDE6B2F5AA7F05D8DA0B02F178016D
S214081CC0C900773220E740F254518A4205D89A0C68
S214081CD002F17D01C9007C3216E74FF47E717E2240
S214081CE012E77B6880E7F00806F108030EE600BFF7
S214081CF0BC090720830770B4CDB23DD0541E0AB382
S214081D000378AB421FD0431C05E014F1FF3419D307
S214081D100278AA4217D013F0030F184603F10103FE
S214081D20F3D1032C11D84CB30378AB420BD0044440
S214081D30431C02E00278AA4205D09C42184603F1EA
S214081D400103F7D1002070BC7047090289B2294305
S214081D5041EA0141036806464B40A3F1013222EAF4
S214081D60030313F0803F00F1040003D1043C032C66
S214081D70F0D8D8E73046D7E71446D2E72046E2E759
S214081D80844641EA000313F0030349D1403A23D3BB
S214081D900B6803604B6843608B688360CB68C360DE
S214081DA00B6903614B6943618B698361CB69C361C6
S214081DB00B6A03624B6A43628B6A8362CB6AC362AE
S214081DC00B6B03634B6B43638B6B8363CB6BC36396
S214081DD040304031403ADBD230320BD30B680360D8
S214081DE04B6843608B688360CB68C36010301031E3
S214081DF0103AF3D20C3205D351F8043B40F8043BB2
S214081E00043AF9D2043208D0D2071CBF11F8013BB5
S214081E1000F8013B01D30B8803806046704700BF7B
S214081E20082A13D38B07B1D010F00303AED0C3F142
S214081E300403D21ADB071CBF11F8013B00F8013B6C
S214081E40A4D331F8023B20F8023B9FE7043AD9D3E3
S214081E50013A11F8013B00F8013BF9D20B78037000
S214081E604B7843708B788370604670478842F0B52D
S214081E700DD98B1898420AD28418002A51D02246C7
S214081E8013F8014D994202F8014DF9D1F0BD0F2A19
S214081E9048D941EA00039B0746D1154600F11004CD
S214081EA001F1100353F8106C103D44F8106C53F809
S214081EB00C6C0F2D44F80C6C53F8086C04F11004E5
S214081EC044F8186C53F8046C03F1100344F8146CC7
S214081ED0E8D8A2F1100323F00F0302F00F0E103318
S214081EE0BEF1030F1944034421D90E4674461D1F3C
S214081EF056F8047B043C032C45F8047FF8D8AEF16A
S214081F00040424F0030404342144234402F00302A6
S214081F1062B1013B0A4411F8014B8A4203F8014FAB
S214081F20F9D1F0BD0346F3E70346F2E7F0BD724683
S214081F30EEE700BF0148FFF7B7BB00BF0C0A072053
S214081F400148FFF7B3BB00BF0C0A0720002900F0C2
S214081F5094802DE9F04F0C46154683B0804605F16F
S214081F600B06FFF7E7FF54F804EC162E2EF00307CF
S214081F70A4F108093CD810221646B5423DD8974227
S214081F8043DAC64B09EB07009968884200F0C3801D
S214081F90436823F0010101444968C9074DD51EF07E
S214081FA0010F00F09B8029464046FFF701FC0546D6
S214081FB000283BD054F8043CA0F1080223F00103A3
S214081FC04B449A4200F02B813A1F242A00F21881CB
S214081FD0132A00F2EB8003462246116819605168FE
S214081FE0596092689A6021464046FFF7D1F81DE08E
S214081FF026F00706002E3246BFDA00250C232846B0
S214082000C8F8003003B0BDE8F08F2546BB1B0F2B81
S214082010D9F804201DD802F001023A4309EB07015B
S214082020C9F804204B6843F001034B604046FFF7AD
S21408203087FF284603B0BDE8F08F23F00303F9189E
S21408204091421DDBC36882682546D3600F469A60B6
S214082050DCE702F0010209EB060143F00103324314
S214082060C9F804204F444B607B68083143F00103ED
S2140820707B604046FFF78CF8D8E71146FFF798BB19
S2140820801EF0010F8FD154F8081CA9EB010ADAF8E4
S214082090041021F003010B443B44934226DB5546CB
S2140820A0C16880683A1FC160886055F8080FDAF87A
S2140820B00C10242AC160886026D8132A40F2818032
S2140820C021681B2ACAF808106168CAF80C1000F2C2
S2140820D0AD8004F108000AF1100274E054F8083CD8
S2140820E0A9EB030ADAF8041021F003017B189342DF
S2140820F0FFF659AF5546DAF80C1055F8080F3A1F90
S214082100242AC1608860D8D9214628461F46D14669
S214082110FFF7ACFE7AE7416806F1100021F0030BE2
S214082120BB44834558DA1EF0010F7FF43CAF54F8E1
S214082130081CA9EB010ADAF8041021F003018B4405
S2140821405845D3DC5546DAF80C1055F8080F3A1FF0
S214082150242AC160886000F28D80132A40F28780A6
S21408216021681B2ACAF808106168CAF80C1000F221
S214082170888004F108010AF11002086810604868AF
S214082180506089689160ABEB06020AEB060142F0E4
S214082190010299604A60DAF80430404603F0010309
S2140821A01E43CAF80460FFF7CBFE42E723681B2AE3
S2140821B003606368436027D800F1080304F1080247
S2140821C00BE720462A4601681F4611604168D1463B
S2140821D051608368936019E7ABEB060B09EB0601C1
S2140821E04BF0010299604A6054F8043C404603F0FC
S2140821F001031E4344F8046CFFF7A2FE254618E7C1
S2140822002146FFF733FEEEE6A368242A8360E368D8
S214082210C36018D000F1100304F11002DDE650F890
S214082220043C254623F003031F44EFE6A168242A4E
S214082230CAF81010E168CAF814100DD004F110009E
S2140822400AF11802BFE7226900F118030261616902
S21408225004F118024161C0E6226904F11800CAF8C0
S214082260182061690AF12002CAF81C10ABE721465B
S2140822702A4682E7214628460193FFF7F7FD019B89
S21408228081E7A168242ACAF81010E168CAF8141071
S21408229006D004F110010AF118026EE71C050720A3
S2140822A0226904F11801CAF8182060690AF12002A8
S2140822B0CAF81C0061E700BF38B50023064C05467F
S2140822C008462360FEF76AFB431C00D038BD236827
S2140822D0002BFBD02B6038BD200A072010B50C4613
S2140822E0B1F90E1000F066F9002803DB236D0344ED
S2140822F0236510BDA38923F48053A38110BD00BFB6
S2140823002DE9F0410C46B1F90C101F46CB051646D0
S214082310054607D5B4F90E100223002200F034F95A
S214082320B4F90C1021F48051A1813B463246B4F929
S2140823300E102846BDE8F04100F014B810B50C465B
S214082340B1F90E1000F020F9A389421C0EBF23F441
S214082350805343F480532065A38110BDB1F90E1055
S21408236000F078B8F8B50E460025084C1146074622
S2140823701A4630462560FEF723F8431C00D0F8BD01
S2140823802368002BFBD03B60F8BD00BF200A07205F
S2140823902DE9F8432C4D0646286898460F46914680
S2140823A0FFF782F9294B1C68D4F84831002B3ED039
S2140823B05A681F2A1CDC02F1010E76B1012103EBD4
S2140823C08204C4F88890D3F8880191400843022E06
S2140823D0C3F88801C4F8088123D00232C3F804E0A1
S2140823E0286843F82270FFF761F90020BDE8F883F3
S2140823F0174B0BB34FF4C870FFF7D2F90346D8B1A2
S2140824000020D4F848114FF0010E586019600246B3
S214082410C4F84831C3F88801C3F88C01002EDCD014
S214082420CCE7D3F88C010143C3F88C11D5E704F543
S214082430A673C4F84831BBE72868FFF737F94FF0AA
S214082440FF30BDE8F88300BF18050720EC25080014
S214082450A117080038B50023064C05460846236031
S214082460FEF7B2FA431C00D038BD2368002BFBD019
S2140824702B6038BD200A072070B559B105460C46B2
S21408248010B1836B002B3CD0636ED80705D5B4F922
S2140824900C302BB90026304670BDA38999053CD56B
S2140824A021462846FEF7DAFCE36A064633B1E169B8
S2140824B0284698470028B8BF4FF0FF36A3891A0663
S2140824C022D4216B41B104F14003994202D0284638
S2140824D0FEF75EFE00232363616C21B12846FEF7F3
S2140824E057FE00236364FEF7DDFD0022636EA281BB
S2140824F0DB070ED5A06DFFF7D5F8FEF7D9FD3046F9
S21408250070BDFEF79FFDBFE721692846FEF740FE2F
S214082510D7E7A06DFFF7CAF8ECE7A06DFFF7C4F899
S214082520B4F90C30002BBBD1666E16F00106B1D19B
S214082530A06DFFF7BBF8304670BD00BF70B50D46FE
S2140825400023074C0646114628462360FEF73FFA46
S214082550431C00D070BD2368002BFBD0336070BDD1
S214082560200A072038B50023064C0546084623608F
S214082570FEF732FA431C00D038BD2368002BFBD088
S2140825802B6038BD200A0720F8B50E460025084CF3
S214082590114607461A4630462560FEF71FFA431CC2
S2140825A000D0F8BD2368002BFBD03B60F8BD00BF09
S2140825B0200A0720F8B50E460025084C114607469F
S2140825C01A4630462560FDF7DBFE431C00D0F8BDF2
S2140825D02368002BFBD03B60F8BD00BF200A07200D
S2140825E048656C6C6F20576F726C6400F0000720AB
S2140825F00A000000F8B500BFF8BC08BC9E46704745
S2140826003D0E080019010800F8B500BFF8BC08BC64
S20C0826109E467047F50008001D
S2140826184FF48063174A1360C2F80032164B1A6ADA
S214082628D20120D5154A1A629A6ED103FCD51A6BC0
S21408263822F0030242F001021A639A6E1207FCD5CA
S2140826480F4A9A629A6E9007FCD511221A639A6EF8
S2140826581107FCD512221A639A6E1207FCD5094A86
S214082668094B1A607047094A1A629A6ED007FCD551
S214082678D8E700BF000A0E4000060E4009083701D2
S214082688013F0D2000BD0105E400072009083700B2
S214082698114B124A9842124B03D800211160196050
S2140826A870471049884202D84FF48071F6E70E49F9
S2140826B8884202D84FF40071F0E70C49884202D8DD
S2140826C84FF44071EAE70A49884294BF4FF480619C
S2140826D84FF4A061E2E700BFBFEA2101000A0E40F6
S2140826E8000C0E407FF0FA02FF8FD003FFB3C40435
S2140826F87F4A5D0500093D00F0000720000000003D
S21408270800000000DC03072044040720AC04072068
S21408271800000000000000000000000000000000A4
S2140827280000000000000000000000000000000094
S2140827380000000000000000000000000000000084
S2140827480000000000000000000000000000000074
S2140827580000000000000000000000000000000064
S2140827680000000000000000000000000000000054
S2140827780000000000000000000000000000000044
S2140827880000000000000000000000000000000034
S2140827980000000000000000000000000000000024
S2140827A80000000000000000010000000000000013
S2140827B80E33CDAB34126DE6ECDE05000B000000D8
S2140827C800000000000000000000000000000000F4
S2140827D800000000000000000000000000000000E4
S2140827E800000000000000000000000000000000D4
S2140827F800000000000000000000000000000000C4
S214082B280000000000000000FC0907200000000064
S214082B38000000001C0507201C05072024050720A0
S214082B48240507202C0507202C0507203405072010
S214082B58340507203C0507203C05072044050720C0
S214082B68440507204C0507204C0507205405072070
S214082B78540507205C0507205C0507206405072020
S214082B88640507206C0507206C05072074050720D0
S214082B98740507207C0507207C0507208405072080
S214082BA8840507208C0507208C0507209405072030
S214082BB8940507209C0507209C050720A4050720E0
S214082BC8A4050720AC050720AC050720B405072090
S214082BD8B4050720BC050720BC050720C405072040
S214082BE8C4050720CC050720CC050720D4050720F0
S214082BF8D4050720DC050720DC050720E4050720A0
S214082C08E4050720EC050720EC050720F40507204F
S214082C18F4050720FC050720FC05072004060720FE
S214082C28040607200C0607200C06072014060720AB
S214082C38140607201C0607201C060720240607205B
S214082C48240607202C0607202C060720340607200B
S214082C58340607203C0607203C06072044060720BB
S214082C68440607204C0607204C060720540607206B
S214082C78540607205C0607205C060720640607201B
S214082C88640607206C0607206C06072074060720CB
S214082C98740607207C0607207C060720840607207B
S214082CA8840607208C0607208C060720940607202B
S214082CB8940607209C0607209C060720A4060720DB
S214082CC8A4060720AC060720AC060720B40607208B
S214082CD8B4060720BC060720BC060720C40607203B
S214082CE8C4060720CC060720CC060720D4060720EB
S214082CF8D4060720DC060720DC060720E40607209B
S214082D08E4060720EC060720EC060720F40607204A
S214082D18F4060720FC060720FC06072004070720F9
S214082D28040707200C0707200C07072014070720A6
S214082D38140707201C0707201C0707202407072056
S214082D48240707202C0707202C0707203407072006
S214082D58340707203C0707203C07072044070720B6
S214082D68440707204C0707204C0707205407072066
S214082D78540707205C0707205C0707206407072016
S214082D88640707206C0707206C07072074070720C6
S214082D98740707207C0707207C0707208407072076
S214082DA8840707208C0707208C0707209407072026
S214082DB8940707209C0707209C070720A4070720D6
S214082DC8A4070720AC070720AC070720B407072086
S214082DD8B4070720BC070720BC070720C407072036
S214082DE8C4070720CC070720CC070720D4070720E6
S214082DF8D4070720DC070720DC070720E407072096
S214082E08E4070720EC070720EC070720F407072045
S214082E18F4070720FC070720FC07072004080720F4
S214082E28040807200C0807200C08072014080720A1
S214082E38140807201C0807201C0807202408072051
S214082E48240807202C0807202C0807203408072001
S214082E58340807203C0807203C08072044080720B1
S214082E68440807204C0807204C0807205408072061
S214082E78540807205C0807205C0807206408072011
S214082E88640807206C0807206C08072074080720C1
S214082E98740807207C0807207C0807208408072071
S214082EA8840807208C0807208C0807209408072021
S214082EB8940807209C0807209C080720A4080720D1
S214082EC8A4080720AC080720AC080720B408072081
S214082ED8B4080720BC080720BC080720C408072031
S214082EE8C4080720CC080720CC080720D4080720E1
S214082EF8D4080720DC080720DC080720E408072091
S214082F08E4080720EC080720EC080720F408072040
S214082F18F4080720FC080720FC08072004090720EF
S214082F28040907200C0907200C090720140907209C
S210082F3814090720FFFFFFFF000002003E
S80408085596
